:2000000008C1000037C1000035C1000033C1000031C100002FC100002DC100002BC1000079
:2000200029C1000027C1000025C1000023C1000021C100001FC100001DC10000B1C600000D
:2000400019C1000017C1000015C1000013C1000011C100000FC100000DC10000CEC6000040
:2000600009C100000C94630A0C94990A03C1000001C10000FFC00000FDC00000FBC00000A9
:20008000F9C00000F7C00000F5C00000F3C000000C940E0B0C94440BEDC00000EBC0000088
:2000A000E9C00000E7C00000E5C00000E3C00000E1C00000DFC00000DDC00000DBC0000030
:2000C000D9C00000D7C00000D5C00000D3C00000D1C00000CFC00000CDC00000CBC0000090
:2000E000C9C000004C084F083E08420848088608530857085D08610865086B086F08730804
:20010000860879087D08810800000A0B02090C0D0E08070304010000000000000000000064
:2001200000000000000000000000000000000000000000001211100000000000000000008C
:200140000000000000000000000000000000010210202008081020401020408002010201D6
:200160000804020101020408102040808040201008040201800402018040201008040201EC
:2001800008040201010204081020408001020408102040800505050507050808080802020E
:2001A00002020A0A08080404040401010101010101010303030303030303040707070C0CB6
:2001C0000C0C0C0C0C0C0202020206060606060606060B0B0B0B0B0B0B0B00002200250000
:2001E00028002B002E003100340002010000050108010B0100002100240027002A002D0038
:200200003000330001010000040107010A01CB0A760B11241FBECFEFD1E2DEBFCDBF00E07F
:200220000CBF13E0A0E0B2E0E8E3F8E100E00BBF02C007900D92A635B107D9F727E0A6E5B3
:20024000B3E001C01D92A138B207E1F712E0C2E1D2E000E006C022970109FE010BBF0E9416
:20026000160CCE30D10780E00807A9F70E94E20B0C941A0CC5CE1F93CF93DF93C9E2D3E0AB
:200280001881229661E0812F42D761E0812F78D783E0C534D807A1F7CDEED2E01881229632
:2002A00061E0812F34D760E0812F6AD783E0C932D807A1F726E040E855E260E070E087E4DC
:2002C00096E00E94030A26E340E052EC61E070E084EE96E00E94030A10BA10920701DF9186
:2002E000CF911F910895FC0140E09F01281B390B261737071CF42191420FF7CF842F8195F0
:200300000895CF9310925D0320915D03283008F051C0E22FF0E08091C90590E002C095954E
:2003200087952A95E2F7E85FFD4F80FF17C060E0808126D720915D03822F90E0FC01E85F6C
:20034000FD4F30813093C305FC01E050FE4F80818093C2052F5F20935B0303C061E080811C
:200360000FD720915D03E22FF0E08091CA0590E002C0959587952A95E2F7E05FFD4F80FFAB
:2003800010C061E08081FCD680915D03E82FF0E0E05FFD4F90819093C4058F5F80935A033B
:2003A00003C060E08081ECD680915D038F5F80935D03AACFC091CB05C830D1F040F4C2302C
:2003C00099F0C43099F0C13081F560E013C0C032A9F020F4C03149F561E00CC0C03499F045
:2003E000C03819F561E017C060E009C060E00CC060E011C082E0C4D660E009C061E082E011
:20040000BFD660E00BC061E082E0BAD661E083E0B7D660E006C082E0B3D661E083E0B0D6BD
:2004200061E084E0ADD6C09359038091CC0580FF07C061E08FE1A4D681E08093580303C000
:2004400060E08FE19DD68091C905811102C010925B038091CA05811102C010925A03809102
:20046000CB05811102C0109259038091CC05811102C0109258038AEA80937C0285E58093A5
:200480007D0282E080937E0289E080937F0280915B038093800280915A03809381028091D2
:2004A000590380938202809158038093830268E070E08CE792E017DF80938402E09147067B
:2004C000F09148060280F381E02D49E050E06CE772E087E496E0CF911994FC0180818A3A9C
:2004E000B1F58181853599F510925D0340915D03842F90E0238130E026503109821793071F
:200500006CF4DF01A80FB91F15962C91DC01A85EBD4F2C934F5F40935D03E8CF90935703E1
:20052000809356038481813089F4D3D3E0914706F091480640915603509157030280F3818E
:20054000E02D68E172E087E496E01994D8C308950F931F938FEF80937E0080937D00109298
:20056000620310926303109264031092650361E085E106D661E08AE003D68091C305882370
:2005800029F068E97AE380E090E0B0D461E08091C305F6D57CD46093290670932A068093A3
:2005A0002B0690932C068091C20539D5AA2797FDA095BA2F8093A2039093A303A093A403F1
:2005C000B093A50340915E0350915F0360916003709161034F5F5F4F6F4F7F4F40935E03E6
:2005E00050935F0360936003709361038C3C9240A105B10528F0403858436140710598F237
:2006000010925E0310925F0310926003109261033ED40091290610912A0620912B06309182
:200620002C06601B710B820B930B609362037093630380936403909365038091C305811135
:200640000CC08FEF9FEFA0E0B0E08093620390936303A0936403B09365031092C305109260
:200660007E0010927D0010BA109207018AEA80937C0285E580937D0284E080937E0287E00A
:2006800080937F028091620390916303909380028093810266E070E08CE792E024DE8093FE
:2006A0008202E0914706F09148060280F381E02D47E050E06CE772E087E496E01F910F91F9
:2006C00019949F92AF92BF92CF92DF92EF92FF920F931F93CF93DF9361E08BE051D561E08B
:2006E0008EE04ED568EB7BE080E090E0FFD320E0822F90E0FC01EE54FA4F1082FC01EE559E
:20070000FA4F1082880F991F880F991FFC01EE59FA4F1082118212821382FC01EE5DFA4FF4
:200720001082118212821382FC01EE51FB4F1082118212821382FC01EE55FB4F10821182E8
:2007400012821382FC01EE59FB4F1082118212821382FC01EE5DFB4F1082118212821382B4
:20076000FC01EE51FC4F108211821282138281E0820F803110F4282FBBCF80935D03109207
:200780005C0361E08BE2FCD461E08DE2F9D462E370E080E090E0AAD361E08FE2F1D462E85C
:2007A00070E080E090E0A2D361E081E3E9D410925D03C0915D03C83008F073C08FB190E0BC
:2007C0000C2E02C0959587950A94E2F724E0C29FE0011124FE0180FD34C0EE51FB4F8081EB
:2007E0009181A281B3810196A11DB11D80839183A283B3830197A105B10509F04CC0FE0103
:20080000EE55FB4F80819181A281B3810196A11DB11D80839183A283B38345D3CE59DA4FE4
:20082000688379838A839B83E0915D0384E0E89FF0011124EE59FB4F1082118212821382E5
:200840002AC0EE59FB4F80819181A281B3810196A11DB11D80839183A283B383FE01EE55DC
:20086000FB4F4081518162817381413051056105710589F480399140A105B10561F413D383
:20088000CE5DDA4F688379838A839B8380915C038F5F80935C0380915D038F5F80935D0350
:2008A00088CF10925D0340915D03483008F077C020910601842F90E030E002C035952795D4
:2008C0004A95E2F70896EC01CC0FDD1FCC0FDD1FFE0120FD34C0EE51FB4F80819181A28158
:2008E000B3810196A11DB11D80839183A283B3830197A105B10509F04CC0FE01EE55FB4FAA
:2009000080819181A281B3810196A11DB11D80839183A283B383C7D2CE59DA4F6883798308
:200920008A839B83E0915D0324E0E29FF0011124EE57FB4F10821182128213822AC0EE5902
:20094000FB4F80819181A281B3810196A11DB11D80839183A283B383FE01EE55FB4F408101
:20096000518162817381413051056105710589F480399140A105B10561F495D2CE5DDA4FB8
:20098000688379838A839B8380915C038F5F80935C0380915D038F5F80935D0384CF40917F
:2009A0002D0650912E0660912F0670913006F12C8FE08F15D8F124E0F29EF0011124DF01FF
:2009C000AE59BA4F8D919D910D90BC91A02D84179507A607B70768F0EF01CE5DDB4F8C0138
:2009E0009D01041B150B260B370B088319832A833B83EF01CE5DDA4F088119812A813B8147
:200A0000081719072A073B0778F0041715072607370750F0EE51FC4F081B190B2A0B3B0B8E
:200A20000083118322833383F394C2CFF0925D0302E214E082EEA82E83E0B82EC3E8D2E086
:200A400098EEC92E93E0D92EE12CF12CF80161917191819191918F01A7019601BFD6992433
:200A60009394643F71408105910508F4912CDA01C901890D911DA11DB11DFE0133979083D5
:200A80003196290D2083F50161917191819191915F01A7019601A2D699249394643F714049
:200AA0008105910508F4912CFE013197DA01C901890D911DA11DB11D9083290D2883249677
:200AC00024E00236120709F0C1CF8AEA80937C0285E580937D0283E080937E0285E48093C5
:200AE0007F0264E470E08CE792E0FDDB8093C002E0914706F09148060280F381E02D45E492
:200B000050E06CE772E087E496E0DF91CF911F910F91FF90EF90DF90CF90BF90AF909F9066
:200B2000199410925D0340915D032091C9054630D0F4842F90E030E002C0359527954A95C2
:200B4000E2F7880F991FFC01EF51FD4F20FF02C061E001C060E0808113D380915D038F5F7B
:200B600080935D03E0CF8AEA80937C0285E580937D0285E080937E0286E080937F022093AD
:200B8000800265E070E08CE792E0ADDB80938102E0914706F09148060280F381E02D46E085
:200BA00050E06CE772E087E496E01994CF92DF92EF92FF920F931F93CF93DF93EC016B016D
:200BC0007C0100E010E087E496E00FD31816190684F40F5F1F4F87E496E020D3F701819384
:200BE0007F016AE070E080E090E080D10C151D0554F388818A3AB1F48981853599F4B801B4
:200C000061507109CE016FDBFE01E00FF11F3197908189130AC08B8190E08017910729F48B
:200C200081E001C080E090E000C0DF91CF911F910F91FF90EF90DF90CF90089564E670E0CF
:200C400085EC95E0B3DF0197C9F78091C705833089F028F4813049F0823059F00895843069
:200C600081F1853009F434C0089564E685EC95E034CC47CB64E685EC95E023DD60E08BE0A2
:200C80007FD260E08EE07CD260E08BE279D260E08DE276D260E08FE273D260E081E370D23C
:200CA00060E08091C4056CD261E08091C30568D268E873E180E090E019D160E08091C30511
:200CC00006C046DC60E085E15BD260E08AE058C228CF109234061092350610923606109265
:200CE00037061092330680913106909132068093B200E0E7F0E08081816080830895E0E796
:200D0000F0E080818E7F808308958091340690913506A0913606B09137060196A11DB11DA0
:200D20008093340690933506A0933606B09337068091340690913506A0913606B091370687
:200D400040913A0650913B0660913C0670913D0684179507A607B70710F18091330681116A
:200D60001EC081E0809333068091340690913506A0913606B0913706841B950BA60BB70BA4
:200D80008093340690933506A0933606B0933706E0913806F0913906199510923306089524
:200DA0001F920F920FB60F9211240BB60F922F933F934F935F936F937F938F939F93AF93D2
:200DC000BF93EF93FF9380913106909132068093B2009BDFFF91EF91BF91AF919F918F91DD
:200DE0007F916F915F914F913F912F910F900BBE0F900FBE0F901F9018951F920F920FB69D
:200E00000F9211242F933F938F939F93AF93BF9380913F0690914006A0914106B0914206C2
:200E200030913E0623E0230F2D3720F40196A11DB11D05C026E8230F0296A11DB11D209301
:200E40003E0680933F0690934006A0934106B09342068091430690914406A0914506B09106
:200E600046060196A11DB11D8093430690934406A0934506B0934606BF91AF919F918F914D
:200E80003F912F910F900FBE0F901F9018952FB7F89460913F0670914006809141069091F3
:200EA00042062FBF08953FB7F8948091430690914406A0914506B091460626B5A89B05C02C
:200EC0002F3F19F00196A11DB11D3FBF6627782F892F9A2F620F711D811D911D42E0660FE3
:200EE000771F881F991F4A95D1F708958F929F92AF92BF92CF92DF92EF92FF926B017C0108
:200F0000D2DF4B015C01C114D104E104F104E1F064D4C9DF681979098A099B09683E7340AF
:200F20008105910580F321E0C21AD108E108F10888EE880E83E0981EA11CB11CC114D10431
:200F4000E104F10431F7DFCFFF90EF90DF90CF90BF90AF909F908F900895789484B5826065
:200F600084BD84B5816084BD85B5826085BD85B5816085BDEEE6F0E0808181608083E1E8C8
:200F8000F0E01082808182608083808181608083E0E8F0E0808181608083E1EBF0E080810A
:200FA00084608083E0EBF0E0808181608083E1E9F0E0808182608083808181608083E0E99C
:200FC000F0E0808181608083E1EAF0E0808182608083808181608083E0EAF0E0808181607A
:200FE0008083E1E2F1E0808182608083808181608083E0E2F1E0808181608083EAE7F0E076
:201000008081846080838081826080838081816080838081806880831092C1000895863378
:2010200008F0865320917B00982F9870277F922B90937B0087702091E00290E4299F90018C
:201040001124822B80937C0080917A00806480937A0080917A0086FDFCCF80917800209110
:20106000790090E0922B089590E0FC013197E231F10508F04BC0EE58FF4FD2C38091800032
:201080008F7703C0809180008F7D80938000089580918000877FF9CF84B58F7702C084B521
:2010A0008F7D84BD08958091B0008F7703C08091B0008F7D8093B0000895809190008F77E8
:2010C00007C0809190008F7D03C080919000877F8093900008958091A0008F7707C0809163
:2010E000A0008F7D03C08091A000877F8093A0000895809120018F7707C0809120018F7D3D
:2011000003C080912001877F809320010895CF93DF9390E0FC01E25BFE4F2491FC01EC5644
:20112000FE4F8491882349F190E0880F991FFC01EC50FE4FA591B49186529E4FFC01C59190
:20114000D4919FB7611108C0F8948C91209582238C93888182230AC0623051F4F8948C9180
:20116000322F309583238C938881822B888304C0F8948C91822B8C939FBFDF91CF910895BF
:201180000F931F93CF93DF931F92CDB7DEB7282F30E0F901E85FFE4F8491F901E25BFE4FCF
:2011A0001491F901EC56FE4F04910023C1F0882319F0698359DF6981E02FF0E0EE0FFF1FDC
:2011C000E652FE4FA591B4919FB7F8948C91611103C01095812301C0812B8C939FBF0F9009
:2011E000DF91CF911F910F910895FC01818D228D90E0805C9F4F821B91098F7399270895A8
:20120000FC01918D828D981731F0828DE80FF11D858D90E008958FEF9FEF0895FC01918DDD
:20122000828D981761F0828DDF01A80FB11D5D968C91928D9F5F9F73928F90E008958FEF40
:201240009FEF089582EC9AE0892B39F080E090E0892B19F097D1811124C08DE69BE0892B91
:2012600039F080E090E0892B19F037D281111CC080E090E0892B41F080E090E0892B21F0F7
:201280000E940000811113C080E090E0892BA1F080E090E0892B81F00E94000081110AC03F
:2012A00008950E940000D9CF0E940000E1CF0E940000EACF0C9400000895FC01848DDF016F
:2012C000A80FB11DA35ABF4F2C91848D90E001968F739927848FA689B7892C93A089B18943
:2012E0008C9180648C93938D848D981306C00288F389E02D80818F7D80830895CF93DF9398
:20130000EC01888D8823C1F0EA89FB89808185FD05C0A889B9898C9186FD0EC00FB607FC87
:20132000F5CF808185FFF2CFA889B9898C9185FFEDCFCE01C2DFE8CFDF91CF910895CF92DE
:20134000DF92FF920F931F93CF93DF931F92CDB7DEB76C0181E0D60158968C9358975B9607
:201360009C915B975C968C915C97981307C05096ED91FC915197808185FD2DC0F601038D0A
:2013800010E00F5F1F4F0F731127F02EF601848DF81210C00FB607FCF9CFD6015096ED91FC
:2013A000FC915197808185FFF1CFC601698385DF6981ECCF838DE80FF11DE35AFF4F608334
:2013C000D6015B960C935B975296ED91FC915397808180620CC0D6015696ED91FC9157976C
:2013E00060835096ED91FC91519780818064808381E090E00F90DF91CF911F910F91FF902A
:20140000DF90CF900895BF92CF92DF92EF92FF92CF93DF93EC016A017B01B22EE889F989B1
:2014200082E08083411581EE58076105710599F060E079E08DE390E0A7019601CFD12150F5
:201440003109410951095695479537952795211580E1380790F0E889F989108260E874E8E0
:201460008EE190E0A7019601B9D121503109410951095695479537952795EC85FD85308380
:20148000EE85FF852083188EEC89FD89B082EA89FB89808180618083EA89FB898081886023
:2014A0008083EA89FB89808180688083EA89FB8980818F7D8083DF91CF91FF90EF90DF90F2
:2014C000CF90BF9008951F920F920FB60F9211240BB60F922F938F939F93EF93FF93E091D7
:2014E0005706F09158068081E0915D06F0915E0682FD12C09081809160068F5F8F7320917C
:201500006106821751F0E0916006F0E0E95BF94F958F8093600601C08081FF91EF919F91B8
:201520008F912F910F900BBE0F900FBE0F901F9018951F920F920FB60F9211240BB60F92AD
:201540002F933F934F935F936F937F938F939F93AF93BF93EF93FF9387E496E0AEDEFF9116
:20156000EF91BF91AF919F918F917F916F915F914F913F912F910F900BBE0F900FBE0F9028
:201580001F90189587E496E030DE21E0892B09F420E0822F089510924A061092490688EEA7
:2015A00093E0A0E0B0E080934B0690934C06A0934D06B0934E0689E493E09093480680934E
:2015C000470685EC90E0909354068093530684EC90E0909356068093550680EC90E0909328
:2015E00058068093570681EC90E090935A068093590682EC90E090935C0680935B0686EC02
:2016000090E090935E0680935D061092600610926106109262061092630608951F920F9248
:201620000FB60F9211240BB60F922F938F939F93EF93FF93E091F406F091F5068081E0912A
:20164000FA06F091FB0682FD12C090818091FD068F5F8F732091FE06821751F0E091FD069F
:20166000F0E0EC51F94F958F8093FD0601C08081FF91EF919F918F912F910F900BBE0F90F2
:201680000FBE0F901F9018951F920F920FB60F9211240BB60F922F933F934F935F936F93C9
:2016A0007F938F939F93AF93BF93EF93FF9384EE96E003DEFF91EF91BF91AF919F918F9163
:2016C0007F916F915F914F913F912F910F900BBE0F900FBE0F901F90189584EE96E085DD81
:2016E00021E0892B09F420E0822F08951092E7061092E60688EE93E0A0E0B0E08093E806D3
:201700009093E906A093EA06B093EB0689E493E09093E5068093E4068DEC90E09093F10672
:201720008093F0068CEC90E09093F3068093F20688EC90E09093F5068093F40689EC90E09D
:201740009093F7068093F6068AEC90E09093F9068093F8068EEC90E09093FB068093FA0620
:201760001092FD061092FE061092FF06109200070895CF92DF92EF92FF920F931F93CF9397
:20178000DF937C016A01EB0100E010E00C151D0571F06991D701ED91FC910190F081E02DA3
:2017A000C7011995892B19F00F5F1F4FEFCFC801DF91CF911F910F91FF90EF90DF90CF9097
:2017C00008950895CADBFDDF0E943B01C2E2D9E035DA2097E9F336DDFBCF0895A1E21A2E2C
:2017E000AA1BBB1BFD010DC0AA1FBB1FEE1FFF1FA217B307E407F50720F0A21BB30BE40BE1
:20180000F50B661F771F881F991F1A9469F760957095809590959B01AC01BD01CF01089598
:20182000EE0FFF1F0590F491E02D19940790F691E02D1994F894FFCF363738393A3B3C3DBB
:2018400016181A1C1E20222426282A2C2E303234AA550331313131313131313131313131B9
:20186000313131313131000000000000000000000000000000000000000000000000000042
:20188000000000000000000000000000000000000000000000000000000000000000000048
:2018A0000000000000000000000000000000000000000000AA55033131313131313131316D
:2018C00031313131313131313131000000000000000000000000000000000000000000001E
:2018E0000000000000000000000000000000000000000000000000000000000000000000E8
:20190000000000000000000000000000000000000000000000000000012900330035000D28
:20192000000C000F000200030004000A000B000C000D000E000F00100015001F00210023B0
:20194000002500260028002A002C002E0030003200340029002B002D002F003100330035B1
:2019600000050006000700080009001100160018001A001C001E002000220024000000004B
:20198000009F09B90BF5080E0900097E0900FFFFFFFFFFFFFFFFFFFFFFFFFFFFFFFFFFFF49
:2019A000FFFFFFFFFFFFFFFFFFFFFFFFFFFFFFFFFFFFFFFFFFFFFFFFFFFFFFFFFFFFFFFF47
:2019C000FFFFFFFFFFFFFFFFFFFFFFFFFFFFFFFFFFFFFFFFFFFFFFFFFFFFFFFFFFFFFFFF27
:2019E000FFFFFFFFFFFFFFFFFFFFFFFFFFFFFFFFFFFFFFFFFFFFFFFFFFFFFFFFFFFFFFFF07
:201A0000430320E030E04AE754E4C701B6010E94D226B4011816DCF476956795769567952D
:201A200088E296E0EBDC20E034E244E759E46091AF047091B0048091B1049091B2040E94E9
:201A4000D6260E94F425CB010E94361C1CC0772788E296E0D3DC6091440370E088E296E09E
:201A6000CDDC20E030E04AE754E46091AF047091B0048091B1049091B2040E94D6260E940E
:201A8000F4250E94FE1B2196B0CFDF91CF911F910F91FF90EF90DF90CF90BF909F908F90A3
:201AA0000895CF92DF92EF92FF920F931F93CF93DF93EC01EA810496E11104C07C0100E078
:201AC00010E02DC0E150E43040F4F0E0EC5CFD4FC080DD24C7FCD09402C0C12CD12C7C01BB
:201AE00000E010E08B8190E0081719075CF4F70161917F01A60185E093E00E9431210F5FC0
:201B00001F4FF0CF60E370E088E296E0DF91CF911F910F91FF90EF90DF90CF9076CC8B81DB
:201B200090E00817190774F7F70161917F0185E093E00E94D1200F5F1F4FF1CFAF92CF9278
:201B4000EF920F93CF93DF9341E068EC70E089E994E00E94350242E068EC70E08DE894E05B
:201B60000E943502C5E4D3E045E0E42E04E023E042E064E0CE01CFD9A99684E0CD38D807AE
:201B800099F7A12CC12CE12C00E020E040E060E085E093E00E94FA1ADF91CF910F91EF9031
:201BA000CF90AF90089526E040E855E260E070E088E296E00E94851F10922C0310922B032E
:201BC0001092290310922A0388E296E00C94001FEACFEF92FF920F931F93CF93DF93EC01E9
:201BE0008A81813039F07E0184E0E80EF11C00E010E086C0109229038B81809328038C81DF
:201C0000809327037E01E6E0EE0EF11C00E010E08D8190E0081719070CF07EC08091290335
:201C2000882361F0992787FD909560912703772767FD70950E94AB27892B29F460E0809187
:201C400028030E94191EF70181917F018EBD00000DB407FEFDCF6EB54AE050E088E296E0BC
:201C60000E943121809129038F5F80932903992787FD909560912703772767FD70950E94D9
:201C8000AB27892B29F461E0809128030E94191E0F5F1F4FBDCF809129038823B9F1992791
:201CA00087FD909560912703772767FD70950E94AB27892B59F1F70181917F018EBD000012
:201CC0000DB407FEFDCF6EB588E296E00E94211F809129038F5F80932903992787FD9095BA
:201CE00060912703772767FD70950E94AB27892B29F461E0809128030E94191E0F5F1F4F4B
:201D00008B8190E00817190734F206C060E0809128030E94191ECFCFDF91CF911F910F9109
:201D2000FF90EF9008956F927F928F92AF92CF92DF92EF92FF920F931F93CF93DF93CDB7F4
:201D4000DEB7A9970FB6F894DEBF0FBECDBF3C01FC0180818F3F59F4C30132DD892B61F039
:201D600006C06FE272E088E296E00E94D02088E296E00E94001FC1C3F301818190E0853345
:201D80009105A8F7FC01E857FF4F0C94FC27F301638182810E94E01D23C3F3016381828186
:201DA0000E94191E1DC3C301BADB1AC3F301638170E0762F66278481680F711D7093320398
:201DC000609331038085278130E0322F2227280F311D442737FD4095542F20932D03309353
:201DE0002E0340932F03509330036115710521F082810E943721F4C2F30182810E945824D2
:201E0000EFC2F30182810E944E1E9093440380934303BC0110C31092440310924303E12CDB
:201E2000F12C01E010E08E2D0E944E1E892B89F0809143039091440398010E2C02C0220F39
:201E4000331F0A94E2F7820F931F9093440380934303FFEFEF1AFF0A2EE0E216F10419F7A8
:201E60006091430370914403DEC2F30182810E94A31C8093430390934403692F70E088E2D6
:201E800096E0BCDA60914303709144037727D3C2A5DB33C3F301638170E0828110C0F3011F
:201EA000658170E082810E94C81CF301668170E083810E94C81CF301678170E084810E94DB
:201EC000C81C8EC2C3011EDC8BC2C3013DDC88C288EC94E0E9D384C2F301638188EC94E0F2
:201EE000ECD37301F4E0EF0EF11C00E010E0F301828190E0081719074CF4F70161917F01B1
:201F000088EC94E093D30F5F1F4FF1CF88EC94E04FD466C210922C0310922B03F30142814C
:201F2000638188EC94E042D488EC94E028D3F301228130E082179307A4F480912B0390910A
:201F40002C03019690932C0380932B03853691050CF0D3C261E070E080E090E00E94FE1B2A
:201F6000E3CF00E010E0F301828190E0081719070CF0C3C288EC94E00AD3BC0188E296E056
:201F800044DA0F5F1F4FEFCF2CD62AC2F3018281811103C08CB5806202C08CB58F7D8CBDD4
:201FA0001FC2F3018281E9DB1BC2F3018281813051F038F0823049F0833009F011C28CE0C1
:201FC00005C080E003C084E001C088E025DA08C2C301FFDD92C238D603C2809125039091A2
:201FE00026030E94CB28F3018281F3E08F9FC00111240E9433289093260380932503C12CC4
:20200000D12C00E010E0F301828190E0E0902503F09026030817190794F4EC0CFD1CCE01A4
:20202000019699D789819A81AB81F70180839183A2830F5F1F4FF3E0CF0ED11CE4CFEF28D1
:2020400009F0CEC161E370E0CDC1F3012281638170E08091250390912603F3E02F9F800D5A
:20206000911D11240E947518BBC1F3012281638170E08091250390912603F3E02F9F800D56
:20208000911D11240E94BB18ABC1F30122818091250390912603F3E02F9F800D911D112451
:2020A0000E943C19BC019EC1F30122818381648170E0762F6627680F711D809125039091AC
:2020C0002603F3E02F9F800D911D11240E94881887C1F30122818091250390912603F3E04F
:2020E0002F9F800D911D11240E941F199093440380934303BC0197C1F30122818091250320
:2021000090912603F3E02F9F800D911D1124F2D767C1F30185858F9384858F9383858F93FE
:2021200082858F938184A084C780E680058124814381628185E093E00E94CF1A60E370E0D8
:2021400088E296E062D90F900F900F900F90D5C120E0F3014381628185E093E00E94491ADA
:202160003FC1F3018281811105C085E093E00E941A1B04C085E093E00E94201BF3018381F1
:20218000811105C085E093E00E94271B29C185E093E00E942D1B24C185E093E00E94261AE1
:2021A0001FC1F3014381628185E093E00E942B1A17C1C30176DCA1C1F3018281811105C047
:2021C00085E093E00E943C1A0BC185E093E00E94421A06C1F3018281811105C085E093E0A0
:2021E0000E94341BFDC085E093E00E94361BF8C0F3018281811105C085E093E00E944C1B7F
:20220000EFC085E093E00E94451BEAC0F3018281811105C085E093E00E943F1BE1C085E063
:2022200093E00E94381BDCC0F301628185E093E00E948C1BD5C081E08093B804F3018281E6
:202240008093B7048381648170E0762F6627680F711D882777FD8095982F0E9422269B01BB
:20226000AC016093B3047093B4048093B5049093B60460E070E080E89FE30E9487256B016F
:202280007C016093AF047093B0048093B1049093B2049B01AC016AE077ED83EA9DE30E943D
:2022A00087256093AB047093AC048093AD049093AE040E94EF25161617062CF47093AA04B4
:2022C0006093A90406C081E090E09093AA048093A904C092A504D092A604E092A704F09290
:2022E000A80420E030E0A901C701B6010E94832587FF03C11092A5041092A6041092A70481
:202300001092A804FAC01092B804F7C062E088E296E00E94211F60E088E296E00E94211F9A
:20232000ECC060E370E088E296E06FD8F3018581E680F12CFE2CEE24E80EF11C8381648192
:2023400070E0762F6627680F711D882777FD8095982F0E942226AB01BC01F3018281970115
:2023600090E022DBCAC0F3016281653099F48381882339F08130A1F549EF59E064EF79E031
:2023800004C04FEE59E06AEE79E0CE0101960E944E060CC0F301E780068125814481663047
:2023A00009F461E0CE0101960E948B07F3018381F9E28F9FC0011124BE016F5F7F4F8B5B0D
:2023C0009C4F3DD80DC0C3010ADA0AC0F3018281F9E28F9FC00111248B5B9C4F0E944B0703
:2023E00060E370E088E296E010D887C0109244031092430305E413E0C8010E943C06209130
:20240000430330914403620F731F811D911D9B017093440360934303075D1F4F84E00D3885
:20242000180751F7B901772788E296E00E94FE096091440370E088E296E00E94FE095DC026
:20244000F3018481458150E060E070E0BA0155274427782B8781482B8681582B40930103DC
:2024600050930203609303037093040382818130A9F060F08230D1F08330F9F4F301238129
:2024800030E080E093E00E94E30817C0F301238130E080E093E00E9407080FC0F301238162
:2024A00030E080E093E00E94490807C0F301238130E080E093E00E949108E0912806F091A9
:2024C0002906609103030190F081E02D88E296E0199513C0D3011396EDE1F3E08D91819316
:2024E00023E0E532F207D1F74DE153E0F301628185E093E00E94521B73CFA9960FB6F89410
:20250000DEBF0FBECDBFDF91CF911F910F91FF90EF90DF90CF90AF908F907F906F900895C0
:20252000CF93DF93C5E4D3E0CE010E941F07A99684E0CD38D807C1F788E296E00E94761E7F
:202540000F978CF0C9EBD4E088E296E00E948F1E899384E0C83CD807B9F789EB94E0E3DB09
:2025600081E090E002C080E090E0DF91CF910895D7DF8091B804813009F4B0C90895809133
:20258000F80490E02091F904821B910908952091F9048091F804281750F4E22FF0E0E650F8
:2025A000FB4F808190E02F5F2093F90408958FEF9FEF0895E091F9048091F804E81730F43E
:2025C000F0E0E650FB4F808190E008958FEF9FEF08950895CF92DF92EF92FF920F931F931F
:2025E000CF93DF937C01CB018A012091D404222389F0EB016B01C40ED51ECC15DD0561F0BB
:202600006991D701ED91FC910190F081E02DC7011995F3CF642F8ED1C801DF91CF911F915B
:202620000F91FF90EF90DF90CF900895CF93DF931F92CDB7DEB769832091D4042223D1F068
:202640002091D504203240F021E030E0FC013383228380E090E014C08091D604E82FF0E08F
:20266000E952FB4F998190838F5F8093D6048093D50404C061E0CE0101965CD181E090E078
:202680000F90DF91CF910895FC011382128248EE53E060E070E044835583668377838CE31E
:2026A00092E09183808308951092F9041092F8041092D6041092D50480C081E08093D40434
:2026C0006093F7041092D6041092D50408950F93062F21E04091D50467ED74E08091F70442
:2026E000D2D01092D6041092D5041092D4040F9108958F929F92AF92BF92CF92DF92EF9253
:20270000FF920F931F93CF93DF93EC01F62ED42E48015901EE2009F1D0DF1E2D143008F00C
:2027200013E01150B8F0E881F98128E0129FB0011124A501940104C05695479537952795CD
:202740006A95D2F7CA01B9010190F081E02DCE011995E7CF60E0CE01BADF4D2D413208F05D
:2027600040E22C2D6AEF74E08F2D45D01092F9048093F804DF91CF911F910F91FF90EF9084
:20278000DF90CF90BF90AF909F908F900895CF92EF920F931F93C22EE12C00E010E0980156
:2027A000A8DF1F910F91EF90CF90089521E0EFCF61E08DCF88EC94E067CF1092870581E0BE
:2027C000809385051092840561E084E10E94191E61E085E10E94191EE9EBF0E080818E7F80
:2027E000808380818D7F808388E48093B80085E48093BC000895413208F043C0909187059F
:202800009111FCCF91E090938705209385052FEF20931A0510925F05240F20935E0590938C
:20282000860590918605880F892B8093860580918405813061F410928405809186058093FE
:20284000BB008091BC0083FDF8CF85EC01C085EE8093BC00809187058130E1F380915F059E
:20286000841710F440915F0520E635E0FB01D9018A2F821B841718F48D918193F9CF842FE9
:20288000089580E008950F93413208F04AC0909187059111FCCF92E090938705009385052F
:2028A0009FEF90931A0510925F0540935E05FB0160E675E0DB019A2F961B941718F4919146
:2028C0009D93F9CF1092860590918605880F892B8093860580918405813061F41092840573
:2028E000809186058093BB008091BC0083FDF8CF85EC01C085EE8093BC00222321F080917F
:2029000087058230E1F380911A058F3F61F080911A05803251F080911A05803341F483E0B8
:2029200007C081E005C080E003C082E001C084E00F910895613298F420918705243089F496
:2029400060933C05FC018EE395E0DC012A2F281B261718F421912D93F9CF80E0089581E006
:20296000089582E0089585ED8093BC008091BC0084FDFCCF10928705089585EC8093BC0056
:202980001092870508951F920F920FB60F9211240BB60F922F933F934F935F936F937F93A1
:2029A0008F939F93AF93BF93EF93FF938091B900887F803609F49DC070F5883209F45CC002
:2029C00090F4803109F455C038F4882309F4F3C0883009F44EC0F2C0883109F44DC080323F
:2029E00009F45EC0EBC0803409F469C050F4803309F456C0883309F0E1C080931A05BDDF0A
:202A0000DDC0803509F44FC0883509F45DC0883409F0D4C0D2C0883909F4C3C0A8F488370A
:202A200009F467C038F4883609F463C0803709F460C0C4C0883809F4B4C0803909F45FC00A
:202A4000803809F0BBC05BC0803B09F482C038F4803A09F466C0883A09F47BC0AFC0803C07
:202A600009F4A3C0883C09F4A0C0883B09F486C0A5C08091860510C090915F0580915E0505
:202A8000981770F5E0915F0581E08E0F80935F05F0E0E05AFA4F80818093BB0085EC82C003
:202AA00080931A058AC0E0915F0581E08E0F80935F058091BB00F0E0E05AFA4F808390910D
:202AC0005F0580915E056AC0E0915F0581E08E0F80935F058091BB00F0E0E05AFA4F808388
:202AE00080918505811169C081E08093840584EA5DC083E08093870510921B05CFCF809185
:202B00001B05803208F04DC0E0911B0581E08E0F80931B058091BB00F0E0E45EFA4F8083F2
:202B2000BDCF2BDF80911B05803230F4E0911B05F0E0E45EFA4F108260911B0570E0E091A8
:202B40008005F09181058CE195E0199510921B0535C084E08093870510923D0510923C05D8
:202B6000E0918205F0918305199580913C05811105C081E080933C0510923E05E0913D05B0
:202B800081E08E0F80933D05F0E0E25CFA4F80818093BB0090913D0580913C05981708F45C
:202BA0007DCF85E88093BC0009C085EC8093BC001092870503C010921A05D5DEFF91EF910F
:202BC000BF91AF919F918F917F916F915F914F913F912F910F900BBE0F900FBE0F901F9083
:202BE0001895CF93CFB7F89480918905811124C0E3E8F2E08491EDE3F2E09491E82FF0E03F
:202C0000EE0FFF1FE853FD4FA591B4918C91892321F461E085E30E94191E61E085E3D0D7E7
:202C20008CB580618CBD8CB580648CBD61E084E3C7D761E083E3C4D7809189058F5F809393
:202C40008905CFBFCF9108959FB7F89480918905882319F081508093890580918905811183
:202C600005C08CB58F7B8CBD109288059FBF0895CF92DF92EF92FF920F931F93CF93DF93C5
:202C80006C018B017A01EC01C557DA4F888187FF04C0FB011182108223C02CE02C9DC001A1
:202CA0002D9D900D11242881AC01420F511D27FD5A9520918A0530E0421753078CF4288124
:202CC000AC01420F511D27FD5A959A01FA01EE0FFF1FE20FF31FE157FA4F208126FD19C0A3
:202CE00088818F5F88838CE08C9D90018D9D300D11248881A901480F511D87FD5A95809114
:202D00008A0590E048175907ACF488818C3034F111C02881820F911D27FD9A95FC01EE0F65
:202D2000FF1FE80FF91FE157FA4F808160E08F7380D7D6CFF80180819181049680349C4967
:202D400018F480E49CE904C0F801808191810496F701918380838FEF888340C0F801808182
:202D600091814881B901640F711D47FD7A95AB01FB01EE0FFF1FE40FF51FE157FA4F41815D
:202D80005281840F951FF701918380838881A901480F511D87FD5A95FA01EE0FFF1FE40F16
:202DA000F51FE157FA4F808186FF18C08881280F311D87FD3A95F901EE0FFF1FE20FF31F27
:202DC000E157FA4F808161E08F73DF91CF911F910F91FF90EF90DF90CF902BC7DF91CF9170
:202DE0001F910F91FF90EF90DF90CF9008951F920F920FB60F9211240BB60F922F933F9327
:202E00004F935F936F937F938F939F93AF93BF93EF93FF9348E850E064E870E081E090E001
:202E200027DFFF91EF91BF91AF919F918F917F916F915F914F913F912F910F900BBE0F9025
:202E40000FBE0F901F9018951F920F920FB60F9211240BB60F922F933F934F935F936F93F1
:202E60007F938F939F93AF93BF93EF93FF9348E950E064E970E082E090E0FADEFF91EF918C
:202E8000BF91AF919F918F917F916F915F914F913F912F910F900BBE0F900FBE0F901F90C0
:202EA00018951F920F920FB60F9211240BB60F922F933F934F935F936F937F938F939F9346
:202EC000AF93BF93EF93FF9348EA50E064EA70E083E090E0CDDEFF91EF91BF91AF919F91FC
:202EE0008F917F916F915F914F913F912F910F900BBE0F900FBE0F901F9018951F920F9221
:202F00000FB60F9211240BB60F922F933F934F935F936F937F938F939F93AF93BF93EF93CE
:202F2000FF9348E251E064E271E080E090E0A0DEFF91EF91BF91AF919F918F917F916F91BF
:202F40005F914F913F912F910F900BBE0F900FBE0F901F90189520918A052033A0F431E00A
:202F6000320F30938A05FC012083822F90E0FC01EE0FFF1FE80FF91FE157FA4F88EB9BE067
:202F80009283818308952FEFFC0120830895DF92EF92FF920F931F93CF93DF93EC01D62E84
:202FA0007A0189018881803308F067C061E08D2D07D68881A82FB0E0FD01EE0FFF1FEA0FD7
:202FC000FB1FE157FA4F2D2D2F739081907C922B908360E272E06E197F0977FF02C06D5FC6
:202FE0007F4F7595679575956795698340E659E0401B510B57FF02C04D5F5F4F55954795BD
:20300000559547954A836CE00E949F279CE0899FB001112420E030E0A901460F571FFA015F
:20302000EE0FFF1FE40FF51FE157FA4F908196FD18C02F5F3F4F2C30310571F790E081303A
:20304000910521F51092800082E0809381001092850010928400B19A80916F00826080939F
:203060006F00888190E0FC01EE0FFF1FE80FF91FE157FA4F8081806480838881DF91CF91FF
:203080001F910F91FF90EF90DF9008958230910569F41092900082E08093910010929500B2
:2030A0001092940088BB80937100DBCF8330910569F41092A00082E08093A1001092A50024
:2030C0001092A40089BB80937200CBCF892B49F61092200182E08093210110922501109290
:2030E00024018ABB80937300BCCF20E639E040E252E04DCFFC01808190E0FC01EE0FFF1F40
:20310000E80FF91FE157FA4F80818F7B80830895FC018081803370F5918128E830E0291BE8
:20312000310997FD3395220F331F220F331F621773077CF0928128E532E0291B310997FD50
:203140003395220F331F220F331F621773070CF49B0122503109220F331F4FB7F89490E0E1
:20316000FC01EE0FFF1FE80FF91FE157FA4F328321834FBF08954F925F926F927F92AF927E
:20318000BF92CF92DF92EF92FF920F931F93CF93DF93EC01603282E078070CF040C077FD02
:2031A00006C0653B71052CF064EB70E002C060E070E0898128E830E0281B310987FD339533
:2031C000220F331F220F331F5901CC24B7FCC094DC2C882777FD8095982F2A8148E552E087
:2031E000421B510927FD5395440F551F440F551F2A01662457FC6094762C7F926F925F92DD
:203200004F9214EBE12EF12C00E010E020E030E0A9010E94CA240F900F900F900F90CE013D
:20322000DF91CF911F910F91FF90EF90DF90CF90BF90AF907F906F905F904F9069CFFC01F3
:2032400080818F3FB1F090E0FC01EE0FFF1FE80FF91FE157FA4F8181928143E0880F991F5F
:203260004A95E1F754E0969587955A95E1F70296089580E090E008954F925F926F927F92CF
:20328000AF92BF92CF92DF92EF92FF920F931F93CF93DF9300D01F92CDB7DEB7FC01228156
:2032A00048E552E0421B510927FD5395440F551F440F551F2A01662457FC6094762C4181FE
:2032C00028E830E0241B310947FD3395220F331F220F331F442737FD4095542F29833A83E3
:2032E0004B835C83ACDF0196BC01882777FD8095982F1F921F921F92E4EBEF93A12CB12C35
:2033000065018301720129813A814B815C810E94CA240F900F900F900F90CB010F900F902C
:203320000F900F90DF91CF911F910F91FF90EF90DF90CF90BF90AF907F906F905F904F90E9
:203340000895CF93DF93EC0160E08E8172D481E090E08CD261E08E816CD481E090E086D292
:2033600060E08E8166D484E690E0DF91CF917EC2EF92FF920F931F93CF93DF938C01C0E073
:20338000D0E0E62EF12CB7010C2E02C0759567950A94E2F76170F801EC0FFD1F878149D415
:2033A0002196C430D10579F7C801DF91CF911F910F91FF90EF90C5CFEF92FF920F931F932B
:2033C000CF93DF938C01C0E0D0E0E62EF12CB7010C2E02C0759567950A94E2F76170F80110
:2033E000EC0FFD1F878125D42196C830D10579F7C801DF91CF911F910F91FF90EF90A1CF59
:203400001F93CF93DF93EC01162F642F8C8111D48D818F3F11F060E00CD48F85612F84FF4B
:2034200005C0CE01DF91CF911F91C6CF70E084E0759567958A95E1F7CE019ADF612FCE018B
:20344000DF91CF911F9194CF40E0DACF61E0FCDF80ED97E00BC2443008F043E0FC012389BB
:20346000421710F04FEF420FFC01E40FF11D2489260F2068622FE8CFFC0160896B7F608BF9
:203480006860E2CFFC016089262F2460208B6C60DBCF0F931F93CF93DF93EC01423018F044
:2034A0008F8588608F874B8B1C8A80E48D8B6E8B70E0605C7F4F6F8B222329F0413019F459
:2034C0008F8584608F8761E08C817AD38D818F3F11F061E075D361E08E8172D300E010E078
:2034E0008F8584FF03C088E090E002C084E090E0081719074CF4FE01E00FF11F61E087813E
:203500005FD30F5F1F4FECCF80E593ECAFD160E08C818FD360E08E818CD38D818F3F11F044
:2035200060E087D36F8564FD16C063E0CE0120DF84E991E19BD163E0CE011ADF84E991E180
:2035400095D163E0CE0114DF86E990E08FD162E0CE010EDF11C06062CE0176DF84E991E12D
:2035600085D16F856062CE016FDF86E990E07ED16F856062CE0168DF6F856062CE0164DF60
:2035800084E0888BCE017EDFCE0160DF82E0898B66E0CE01DF91CF911F910F9155CF8F928A
:2035A000AF92CF92EF920F93CF93DF93CDB7DEB7FC015B853C859D858E854483258306838E
:2035C000E782C086A18682865387348795878687662311F0178602C080E1878720E041E0D6
:2035E00060E1CF01DF91CF910F91EF90CF90AF908F904FCFAF92CF92EF920F93FC01138299
:2036000012828CE492E0918380836483458326830783E086C186A2861386148615861686FC
:20362000178620E041E060E1CF010F91EF90CF90AF902FCFFC0160896D7F608B686004CFA8
:20364000FC016089262F2260208B6A60FDCEFC0160896E7F608B6860F7CEFC016089262FE7
:203660002160208B6960F0CE68E1EECE6CE1ECCEFC016189262F2260218B6660E5CEFC01AB
:2036800061896D7F618B6460DFCEFC016189262F2160218B6560D8CEFC0161896E7F618B63
:2036A0006460D2CECF92DF92EF92FF920F931F93CF93DF931F921F92CDB7DEB78C016770BB
:2036C00088E0689FB00111246064C80149835A83BBDE4981C42E5A81D52EE12CF12CD6012B
:2036E0006D916D01D801ED91FC910190F081E02DC8011995BFEFEB1AFB0AE8E0EE16F1047B
:2037000071F70F900F90DF91CF911F910F91FF90EF90DF90CF90089541E072DE81E090E028
:2037200008951F920F920FB60F9211242F933F938F939F93AF93BF93809120069091210604
:20374000A0912206B091230630911F0623E0230F2D3720F40196A11DB11D05C026E8230FEB
:203760000296A11DB11D20931F068093200690932106A0932206B0932306809124069091A7
:203780002506A0912606B09127060196A11DB11D8093240690932506A0932606B0932706B6
:2037A000BF91AF919F918F913F912F910F900FBE0F901F9018953FB7F89480912406909154
:2037C0002506A0912606B091270626B5A89B05C02F3F19F00196A11DB11D3FBF6627782F44
:2037E000892F9A2F620F711D811D911D42E0660F771F881F991F4A95D1F708958F929F92DB
:20380000AF92BF92CF92DF92EF92FF926B017C01D2DF4B015C01C114D104E104F104E9F092
:203820000E941D25C8DF681979098A099B09683E73408105910578F321E0C21AD108E10844
:20384000F10888EE880E83E0981EA11CB11CC114D104E104F10431F7DECFFF90EF90DF90EA
:20386000CF90BF90AF909F908F9008958230910538F0880F991F880F991F05970197F1F746
:203880000895789484B5826084BD84B5816084BD85B5826085BD85B5816085BDEEE6F0E069
:2038A000808181608083E1E8F0E01082808182608083808181608083E0E8F0E080818160B3
:2038C0008083E1EBF0E0808184608083E0EBF0E0808181608083E1E9F0E080818260808361
:2038E000808181608083E0E9F0E0808181608083E1EAF0E0808182608083808181608083FF
:20390000E0EAF0E0808181608083E1E2F1E0808182608083808181608083E0E2F1E0808135
:2039200081608083EAE7F0E080818460808380818260808380818160808380818068808363
:203940001092C1000895863308F0865320917B00982F9870277F922B90937B008770209139
:203960001B0290E4299F90011124822B80937C0080917A00806480937A0080917A0086FDE2
:20398000FCCF809178002091790090E0922B08951F93CF93DF93182FEB0161E011D120974C
:2039A00011F460E004C0CF3FD10531F461E0812FDF91CF911F913DC1E12FF0E0EE53FE4F18
:2039C000449150E0FA013197E231F10508F09BC0E354FF4F0C94FC2784B5806884BDC7BD95
:2039E00097C084B5806284BDC8BD92C080918000806880938000D0938900C093880088C022
:203A000080918000806280938000D0938B00C0938A007EC080918000886080938000D09328
:203A20008D00C0938C0074C08091B00080688093B000C093B3006CC08091B0008062809392
:203A4000B000C093B40064C080919000806880939000D0939900C09398005AC080919000BD
:203A6000806280939000D0939B00C0939A0050C080919000886080939000D0939D00C09347
:203A80009C0046C08091A00080688093A0008091A0008F7B8093A000D093A900C093A800C3
:203AA00037C08091A00080628093A000D093AB00C093AA002DC08091A00088608093A00085
:203AC000D093AD00C093AC0023C080912001806880932001D0932901C093280119C08091B3
:203AE0002001806280932001D0932B01C0932A010FC080912001886080932001D0932D01D4
:203B0000C0932C0105C0C038D1050CF04FCF49CFDF91CF911F91089590E0FC013197E231FB
:203B2000F10508F04CC0E153FF4F0C94FC27809180008F7703C0809180008F7D80938000BC
:203B4000089580918000877FF9CF84B58F7702C084B58F7D84BD08958091B0008F7703C0BB
:203B60008091B0008F7D8093B0000895809190008F7707C0809190008F7D03C08091900099
:203B8000877F8093900008958091A0008F7707C08091A0008F7D03C08091A000877F809317
:203BA000A0000895809120018F7707C0809120018F7D03C080912001877F809320010895BF
:203BC000CF93DF9390E0FC01E85FFD4F2491FC01E25BFD4F8491882349F190E0880F991F1D
:203BE000FC01E853FD4FA591B49182559D4FFC01C591D4919FB7611108C0F8948C9120955D
:203C000082238C93888182230AC0623051F4F8948C91322F309583238C938881822B88833C
:203C200004C0F8948C91822B8C939FBFDF91CF9108950F931F93CF93DF931F92CDB7DEB78E
:203C4000282F30E0F901EE53FE4F8491F901E85FFD4F1491F901E25BFD4F04910023C1F042
:203C6000882319F0698358DF6981E02FF0E0EE0FFF1FE255FD4FA591B4919FB7F8948C918C
:203C8000611103C01095812301C0812B8C939FBF0F90DF91CF911F910F910895CF93DF938C
:203CA000282F30E0F901EE53FE4F8491F901E85FFD4FD491F901E25BFD4FC491CC2389F0CE
:203CC00081112ADFEC2FF0E0EE0FFF1FEC56FD4FA591B4912C912D2381E090E021F480E0E7
:203CE00002C080E090E0DF91CF910895FC01818D228D90E0805C9F4F821B91098F739927D8
:203D00000895FC01918D828D981731F0828DE80FF11D858D90E008958FEF9FEF0895FC0133
:203D2000918D828D981761F0828DDF01A80FB11D5D968C91928D9F5F9F73928F90E0089575
:203D40008FEF9FEF089586E490E2892B39F080E090E0892B19F09AD1811125C080E090E0C2
:203D6000892B41F080E090E0892B21F00E94000081111CC080E090E0892B41F080E090E034
:203D8000892B21F00E940000811113C080E090E0892BA1F080E090E0892B81F00E940000AB
:203DA00081110AC008950E940000D8CF0E940000E1CF0E940000EACF0C9400000895FC01DA
:203DC000848DDF01A80FB11DA35ABF4F2C91848D90E001968F739927848FA689B7892C938A
:203DE000A089B1898C9180648C93938D848D981306C00288F389E02D80818F7D80830895DE
:203E0000CF93DF93EC01888D8823C1F0EA89FB89808185FD05C0A889B9898C9186FD0EC050
:203E20000FB607FCF5CF808185FFF2CFA889B9898C9185FFEDCFCE01C2DFE8CFDF91CF91E9
:203E40000895CF92DF92FF920F931F93CF93DF931F92CDB7DEB76C0181E0D60158968C93BE
:203E600058975B969C915B975C968C915C97981307C05096ED91FC915197808185FD2DC086
:203E8000F601038D10E00F5F1F4F0F731127F02EF601848DF81210C00FB607FCF9CFD601AE
:203EA0005096ED91FC915197808185FFF1CFC601698385DF6981ECCF838DE80FF11DE35AD6
:203EC000FF4F6083D6015B960C935B975296ED91FC915397808180620CC0D6015696ED918B
:203EE000FC91579760835096ED91FC91519780818064808381E090E00F90DF91CF911F91B3
:203F00000F91FF90DF90CF900895BF92CF92DF92EF92FF92CF93DF93EC016A017B01B22E4A
:203F2000E889F98982E08083411581EE580761057105A1F060E079E08DE390E0A7019601E0
:203F40000E94BE2721503109410951095695479537952795211580E1380798F0E889F989EB
:203F6000108260E874E88EE190E0A70196010E94BE27215031094109510956954795379584
:203F80002795EC85FD853083EE85FF852083188EEC89FD89B082EA89FB8980818061808376
:203FA000EA89FB89808188608083EA89FB89808180688083EA89FB8980818F7D8083DF91C4
:203FC000CF91FF90EF90DF90CF90BF9008951F920F920FB60F9211240BB60F922F938F9386
:203FE0009F93EF93FF93E0913806F09139068081E0913E06F0913F0682FD12C0908180911D
:2040000041068F5F8F7320914206821751F0E0914106F0E0E85DF94F958F8093410601C042
:204020008081FF91EF919F918F912F910F900BBE0F900FBE0F901F9018951F920F920FB679
:204040000F9211240BB60F922F933F934F935F936F937F938F939F93AF93BF93EF93FF93B0
:2040600088E296E0ACDEFF91EF91BF91AF919F918F917F916F915F914F913F912F910F90D7
:204080000BBE0F900FBE0F901F90189588E296E02DDE21E0892B09F420E0822F0895109263
:2040A0002B0610922A0688EE93E0A0E0B0E080932C0690932D06A0932E06B0932F0684E521
:2040C00092E0909329068093280685EC90E0909335068093340684EC90E0909337068093FC
:2040E000360680EC90E0909339068093380681EC90E090933B0680933A0682EC90E0909360
:204100003D0680933C0686EC90E090933F0680933E06109241061092420610924306109206
:2041200044060895CF92DF92EF92FF920F931F93CF93DF937C016A01EB0100E010E00C15C7
:204140001D0571F06991D701ED91FC910190F081E02DC7011995892B19F00F5F1F4FEFCF23
:20416000C801DF91CF911F910F91FF90EF90DF90CF9008956115710581F0DB010D900020E7
:20418000E9F7AD0141505109461B570BDC01ED91FC910280F381E02D199480E090E00895DE
:2041A000E9CFDC01ED91FC910190F081E02D19948F929F92AF92BF92DF92EF92FF920F939A
:2041C0001F93CF93DF93CDB7DEB7A1970FB6F894DEBF0FBECDBF7C01F42FD52ECB0119A297
:2041E000223008F42AE08E010F5D1F4F822E912CA12CB12C6F2F7D2DA5019401BFD6F22FAE
:20420000D32ECA01015011096A3014F4E0E301C0E7E3E60FD801EC93232B242B252B51F7F5
:20422000B801C701A7DFA1960FB6F894DEBF0FBECDBFDF91CF911F910F91FF90EF90DF905C
:20424000BF90AF909F908F9008952115310541F4DC01ED91FC910190F081E02D642F19940D
:20426000A7CF9A01462F50E060E070E0EECF3F924F925F926F927F928F929F92AF92BF92A2
:20428000CF92DF92EF92FF920F931F93CF93DF9300D01F92CDB7DEB78B0129013A01909166
:2042A0001C02981721F09F3F09F0B2C204C0E2EEF2E0349004C180931C02E2EEF2E0E4919E
:2042C000EF3F09F4A5C2E23009F480C074F5EE2309F45BC0E13009F0F1C0109280001092EC
:2042E00081009091810098609093810090918100916090938100282F30E0F901E25BFD4FDE
:20430000E491F0E0EE0FFF1FE255FD4F459154915093E3064093E206F901E85FFD4F249136
:204320002093E10633243394CCC0E43009F49EC00CF474C0E53009F0C1C0109220011092A2
:2043400021019091210198609093210190912101916090932101282F30E0F901E25BFD4F58
:20436000E491F0E0EE0FFF1FE255FD4F459154915093C7064093C606F901E85FFD4F24910E
:204380002093C50655E0352E9CC014BC15BC94B5926094BD95B5916095BD282F30E0F90190
:2043A000E25BFD4FE491F0E0EE0FFF1FE255FD4F459154915093EA064093E906F901E85F00
:2043C000FD4F24912093E806312C7BC01092B0001092B1009091B00092609093B000909147
:2043E000B10091609093B100282F30E0F901E25BFD4FE491F0E0EE0FFF1FE255FD4F4591A4
:2044000054915093DC064093DB06F901E85FFD4F24912093DA0622E0322E53C010929000C2
:20442000109291009091910098609093910090919100916090939100282F30E0F901E25BF6
:20444000FD4FE491F0E0EE0FFF1FE255FD4F459154915093D5064093D406F901E85FFD4F7A
:2044600024912093D306B3E03B2E2BC01092A0001092A1009091A10098609093A1009091F0
:20448000A10091609093A100282F30E0F901E25BFD4FE491F0E0EE0FFF1FE255FD4F459123
:2044A00054915093CE064093CD06F901E85FFD4F24912093CC0674E0372E03C03E2E37FCD8
:2044C000A7C161E07DDB4801A12CB12C832D8D7F09F0C1C060E072E18AE790E0A501940103
:2044E0006FD529833A834B835C8369017A0181E0C81AD108E108F1089FEFC916D104E10458
:20450000F10409F008F495C060E472E48FE090E0A501940155D569017A01E1E0CE1AD10817
:20452000E108F108F2E03F1218C08FEFC816D104E104F10409F008F486C060E970ED83E04F
:2045400090E0A50194013CD569017A0191E0C91AD108E108F10883E001C082E0EFEFCE1663
:20456000D104E104F10409F008F464C068E478EE81E090E0A501940123D569017A01F1E007
:20458000CF1AD108E108F1083320D9F082E038121AC09FEFC916D104E104F10409F008F4C4
:2045A00035C164E274EF80E090E0A501940108D569017A01E1E0CE1AD108E108F10885E0C6
:2045C00003C083E001C084E0FFEFCF16D104E104F10481F178F162E17AE780E090E0A50119
:2045E0009401EED469017A0181E0C81AD108E108F108311002C084E001C086E09FEFC91686
:20460000D104E104F104B1F0A8F0C980DA80EB80FC809AE0F594E794D794C7949A95D1F7ED
:20462000E1E0CE1AD108E108F108332031F087E00BC081E0332011F007C085E095B5987F2E
:20464000982B95BD54C082E09091B100987F982B9093B1004CC060E072E18AE790E0A50129
:204660009401AED469017A01F1E0CF1AD108E108F108C114D10481E0E806F10480F068E41F
:2046800078EE81E090E0A50194019AD469017A0191E0C91AD108E108F10893E001C091E0A1
:2046A000E1E03E1207C080918100887F892B809381001DC0F3E03F1207C080919100887FD0
:2046C000892B8093910013C084E0381207C08091A100887F892B8093A10009C0E5E03E123B
:2046E00006C080912101887F892B80932101411451046104710461F0D801AA0FBB1FA301EC
:2047000092018FD428EE33E040E050E037D403C02FEF3FEFA901F2E03F1609F443C0F31537
:20472000BCF0332081F181E0381272C0D0928900C09288002093E4063093E5064093E6065C
:204740005093E70680916F00826080936F0060C094E0391609F448C03916A4F1E5E03E12C4
:2047600057C0D0922901C09228012093C8063093C9064093CA065093CB068091730082604B
:204780008093730045C0C7BC2093EB063093EC064093ED065093EE0680916E0082608093A1
:2047A0006E0036C0C092B3002093DD063093DE064093DF065093E00680917000826080935C
:2047C000700026C0D0929900C09298002093D6063093D7064093D8065093D906809171007A
:2047E00082608093710014C0D092A900C092A8002093CF063093D0064093D1065093D206F4
:204800008091720082608093720002C084E01CCF0F900F900F900F90DF91CF911F910F9101
:20482000FF90EF90DF90CF90BF90AF909F908F907F906F905F904F903F9008958230A9F02D
:2048400028F4882349F0813051F00895843021F1E8F0853039F1089510926E0008958091F1
:204860006F008D7F80936F000895809170008D7F8093700081E08093B0008091B100887FA1
:2048800084608093B1001092B3000895809171008D7F809371000895809172008D7F80932D
:2048A00072000895809173008D7F809373000895CF93C82F80911C028C1307C0E2EEF2E0A6
:2048C00084919FEF90931C0201C08FEFB7DF60E08C2FCF91AEC91F920F920FB60F92112460
:2048E0000BB60F922F933F934F935F936F937F938F939F93AF93BF93EF93FF938091DD06EA
:204900009091DE06A091DF06B091E006892B8A2B8B2B51F19091DA06E091DB06F091DC063E
:204920008081892780838091DD069091DE06A091DF06B091E006181619061A061B06BCF44F
:204940008091DD069091DE06A091DF06B091E0060197A109B1098093DD069093DE06A093F5
:20496000DF06B093E00603C080911C02A1DFFF91EF91BF91AF919F918F917F916F915F91C7
:204980004F913F912F910F900BBE0F900FBE0F901F9018954F925F926F927F92AF92BF9262
:2049A000CF92DF92EF92FF920F931F93CF93DF93CDB7DEB729013A01621B730B840B950B43
:2049C0002A893B894C895D892A193B094C095D092A8B3B8B4C8B5D8B9B01AC016A897B89E9
:2049E0008C899D899DD2E418F50806091709A8019701E6D22A0D3B1D4C1D5D1DCA01B901F5
:204A0000DF91CF911F910F91FF90EF90DF90CF90BF90AF907F906F905F904F9008950895F6
:204A20000E94411CFCDF0E94E80DC3EADEE10E94B8122097E1F387D9FACF08955058BB2752
:204A4000AA270ED075C166D130F06BD120F031F49F3F11F41EF45BC10EF4E095E7FB51C12D
:204A6000E92F77D180F3BA17620773078407950718F071F49EF58FC10EF4E0950B2EBA2F9F
:204A8000A02D0B01B90190010C01CA01A0011124FF27591B99F0593F50F4503E68F11A162E
:204AA000F040A22F232F342F4427585FF3CF469537952795A795F0405395C9F77EF41F163E
:204AC000BA0B620B730B840BBAF09150A1F0FF0FBB1F661F771F881FC2F70EC0BA0F621F00
:204AE000731F841F48F4879577956795B795F7959E3F08F0B3CF9395880F08F09927EE0F7E
:204B0000979587950895D9D008F481E008950CD00FC107D140F0FED030F021F45F3F19F0AF
:204B2000F0C0511139C1F3C014D198F39923C9F35523B1F3951B550BBB27AA2762177307FC
:204B4000840738F09F5F5F4F220F331F441FAA1FA9F333D00E2E3AF0E0E830D09150504009
:204B6000E695001CCAF729D0FE2F27D0660F771F881FBB1F261737074807AB07B0E809F027
:204B8000BB0B802DBF01FF2793585F4F2AF09E3F510568F0B6C000C15F3FECF3983EDCF325
:204BA000869577956795B795F7959F5FC9F7880F911D9695879597F90895E1E0660F771FB7
:204BC000881FBB1F621773078407BA0720F0621B730B840BBA0BEE1F88F7E095089504D044
:204BE0006894B111D9C00895BCD088F09F5790F0B92F9927B751A0F0D1F0660F771F881F94
:204C0000991F1AF0BA95C9F712C0B13081F0C3D0B1E00895C0C0672F782F8827B85F39F032
:204C2000B93FCCF3869577956795B395D9F73EF490958095709561957F4F8F4F9F4F0895E4
:204C4000E89409C097FB3EF490958095709561957F4F8F4F9F4F9923A9F0F92F96E9BB279E
:204C60009395F695879577956795B795F111F8CFFAF4BB0F11F460FF1BC06F5F7F4F8F4FD7
:204C80009F4F16C0882311F096E911C0772321F09EE8872F762F05C0662371F096E8862FE6
:204CA00070E060E02AF09A95660F771F881FDAF7880F9695879597F90895990F0008550F79
:204CC000AA0BE0E8FEEF16161706E807F907C0F012161306E407F50798F0621B730B840B48
:204CE000950B39F40A2661F0232B242B252B21F408950A2609F4A140A6958FEF811D811DC4
:204D0000089597F99F6780E870E060E008959FEF80EC089500240A941616170618060906FC
:204D2000089500240A9412161306140605060895092E0394000C11F4882352F0BB0F40F447
:204D4000BF2B11F460FF04C06F5F7F4F8F4F9F4F089557FD9058440F551F59F05F3F71F0F1
:204D60004795880F97FB991F61F09F3F79F087950895121613061406551FF2CF4695F1DFEA
:204D800008C0161617061806991FF1CF86957105610508940895E894BB2766277727CB01E7
:204DA00097F908958ADF08F48FEF08950BD0C0CFB1DF28F0B6DF18F0952309F0A2CFA7CFFF
:204DC0001124EACFC6DFA0F3959FD1F3950F50E0551F629FF001729FBB27F00DB11D639FBB
:204DE000AA27F00DB11DAA1F649F6627B00DA11D661F829F2227B00DA11D621F739FB00D89
:204E0000A11D621F839FA00D611D221F749F3327A00D611D231F849F600D211D822F762FC7
:204E20006A2F11249F5750408AF0E1F088234AF0EE0FFF1FBB1F661F771F881F91505040C6
:204E4000A9F79E3F510570F05CCFA6CF5F3FECF3983EDCF3869577956795B795F795E795E6
:204E60009F5FC1F7FE2B880F911D9695879597F9089511F40EF44BCF3EC073DFD0F39923AA
:204E8000D9F3CEF39F57550B87FF43D00024A0E640EA900180585695979528F4805C660FD5
:204EA000771F881F20F026173707480730F4621B730B840B202931294A2BA6951794079494
:204EC000202531254A2758F7660F771F881F20F026173707480730F4620B730B840B200D20
:204EE000311D411DA09581F7B901842F9158880F9695879508959F3F31F0915020F4879578
:204F000077956795B795880F911D9695879597F9089591505040660F771F881FD2F70895FB
:204F2000DB018F939F937DD0BF91AF91A29F800D911DA39F900DB29F900D11240895991B95
:204F400079E004C0991F961708F0961B881F7A95C9F78095089597FB072E16F4009406D0C3
:204F600077FD08D06CD007FC05D03EF4909581959F4F0895709561957F4F0895A1E21A2EA8
:204F8000AA1BBB1BFD010DC0AA1FBB1FEE1FFF1FA217B307E407F50720F0A21BB30BE40B09
:204FA000F50B661F771F881F991F1A9469F760957095809590959B01AC01BD01CF010895C1
:204FC000052E97FB16F400940FD057FD05D0D6DF07FC02D046F408C05095409530952195A5
:204FE0003F4F4F4F5F4F089590958095709561957F4F8F4F9F4F0895EE0FFF1F0590F49199
:20500000E02D1994A29FB001B39FC001A39F700D811D1124911DB29F700D811D1124911D42
:205020000895F0DFA59F900DB49F900DA49F800D911D112408950790F691E02D1994AA1B46
:20504000BB1B51E107C0AA1FBB1FA617B70710F0A61BB70B881F991F5A95A9F780959095B8
:20506000BC01CD010895CF93DF938230910510F482E090E0E091F106F091F20620E030E025
:20508000A0E0B0E0309739F14081518148175907B8F04817590771F482819381109729F01A
:2050A00013969C938E9312972CC09093F2068093F10627C02115310531F04217530718F00E
:2050C000A901DB0101C0EF019A01BD01DF010280F381E02DD7CF21153105F9F0281B390BDB
:2050E0002430310580F48A819B816115710521F0FB019383828304C09093F2068093F1068E
:20510000FE01329644C0FE01E20FF31F8193919322503109398328833AC02091EF06309116
:20512000F006232B41F420910202309103023093F0062093EF06209100023091010221156D
:20514000310541F42DB73EB74091040250910502241B350BE091EF06F091F006E217F307FD
:20516000A0F42E1B3F0B2817390778F0AC014E5F5F4F2417350748F04E0F5F1F5093F006B6
:205180004093EF068193919302C0E0E0F0E0CF01DF91CF910895CF93DF93009709F487C0D1
:2051A000FC01329713821282C091F106D091F206209781F420813181280F391F8091EF064B
:2051C0009091F0068217930779F5F093F006E093EF066DC0DE0120E030E0AE17BF0750F44B
:2051E00012964D915C9113979D014115510509F1DA01F3CFB383A28340815181840F951F7C
:205200008A179B0771F48D919C911197840F951F02969183808312968D919C91139793834A
:2052200082832115310529F4F093F206E093F1063EC0D9011396FC93EE9312974D915D91F5
:20524000A40FB51FEA17FB0779F480819181840F951F0296D90111969C938E93828193817D
:2052600013969C938E931297E0E0F0E08A819B81009719F0FE01EC01F9CFCE010296288171
:205280003981820F931F2091EF063091F0062817390769F4309729F41092F2061092F106C1
:2052A00002C013821282D093F006C093EF06DF91CF910895F894FFCF0000F3068000010021
:2052C00000000019324A62788DA2B4C5D4E1ECF4FAFDFF01FF0000000085038D056905A301
:2052E00005E4041A05B80373796E6300020A0810000000001613EA12BF12C712DA12E91250
:20530000000000008C1B922000000000211F9220761E8F1E811E001FFFFFFFFFFFFFFFFF4B
:20532000FFFFFFFFFFFFFFFFFFFFFFFFFFFFFFFFFFFFFFFFFFFFFFFFFFFFFFFFFFFFFFFF8D
:20534000FFFFFFFFFFFFFFFFFFFFFFFFFFFFFFFFFFFFFFFFFFFFFFFFFFFFFFFFFFFFFFFF6D
:20536000FFFFFFFFFFFFFFFFFFFFFFFFFFFFFFFFFFFFFFFFFFFFFFFFFFFFFFFFFFFFFFFF4D
:20538000FFFFFFFFFFFFFFFFFFFFFFFFFFFFFFFFFFFFFFFFFFFFFFFFFFFFFFFFFFFFFFFF2D
:020000040003F7
:20E000000D9489F10D94B2F10D94B2F10D94B2F10D94B2F10D94B2F10D94B2F10D94B2F109
:20E020000D94B2F10D94B2F10D94B2F10D94B2F10D94B2F10D94B2F10D94B2F10D94B2F1C0
:20E040000D94B2F10D94B2F10D94B2F10D94B2F10D94B2F10D94B2F10D94B2F10D94B2F1A0
:20E060000D94B2F10D94B2F10D94B2F10D94B2F10D94B2F10D94B2F10D94B2F10D94B2F180
:20E080000D94B2F10D94B2F10D94B2F10D94B2F10D94B2F10D94B2F10D94B2F10D94B2F160
:20E0A0000D94B2F10D94B2F10D94B2F10D94B2F10D94B2F10D94B2F10D94B2F10D94B2F140
:20E0C0000D94B2F10D94B2F10D94B2F10D94B2F10D94B2F10D94B2F10D94B2F10D94B2F120
:20E0E0000D94B2F141546D656761323536300041726475696E6F206578706C6F726572205D
:20E1000073746B3530305632206279204D4C5300426F6F746C6F616465723E004875683FDC
:20E1200000436F6D70696C6564206F6E203D20004350552054797065202020203D20005F52
:20E140005F4156525F415243485F5F3D2000415652204C696243205665723D200047434305
:20E160002056657273696F6E203D20004350552049442020202020203D20004C6F772066B2
:20E18000757365202020203D20004869676820667573652020203D200045787420667573A6
:20E1A00065202020203D20004C6F636B20667573652020203D20004D6172202037203230EB
:20E1C000313300312E362E3800342E332E35005623202020414444522020206F7020636FC3
:20E1E00064652020202020696E737472756374696F6E2061646472202020496E7465727265
:20E20000757074006E6F20766563746F7200726A6D702020006A6D70200057686174207091
:20E220006F72743A00506F7274206E6F7420737570706F72746564004D7573742062652083
:20E2400061206C65747465720020005772697474696E672045450052656164696E6720456C
:20E26000450045452065727220636E743D00504F525400303D5A65726F2061646472003F78
:20E280003D43505520737461747300403D454550524F4D207465737400423D426C696E6B76
:20E2A000204C454400453D44756D7020454550524F4D00463D44756D7020464C41534800C2
:20E2C000483D48656C70004C3D4C69737420492F4F20506F72747300513D51756974005269
:20E2E0003D44756D702052414D00563D73686F7720696E7465727275707420566563746FC9
:20E30000727300593D506F727420626C696E6B002A0011241FBECFEFD1E2DEBFCDBF01E0F6
:20E320000CBF12E0A0E0B2E0EEE1FDEF03E00BBF02C007900D92A030B107D9F712E0A0E0E4
:20E34000B2E001C01D92AE30B107E1F70F9460F30D948DFE01E20EBF0FEF0DBF11241FBE9F
:20E360000D9460F30D9400F020E030E040ED57E005C0FA013197F1F72F5F3F4F2817390799
:20E38000C0F308959C01260F311DC901A0E0B0E02F5F3F4FABBFFC018791882361F0809389
:20E3A000C6008091C00086FFFCCF8091C00080648093C000EACF08958DE08093C600809141
:20E3C000C00086FFFCCF8091C00080648093C0008AE08093C6008091C00086FFFCCF809130
:20E3E000C00080648093C00008950F94C2F10F94DCF10895FC019081992359F09093C600AA
:20E400008091C00086FFFCCF8091C00080648093C0003196992379F70895282F982F92957E
:20E420009F70892F805D8A3308F0895F8093C6008091C00086FFFCCF8091C00080648093D9
:20E44000C000822F8F70982F905D9A3308F0995F9093C6008091C00086FFFCCF8091C00000
:20E4600080648093C00008959C01FB01853691051CF46330710594F0C90164E670E00F94BA
:20E480002EFE605D7F4F6093C6008091C00086FFFCCF8091C00080648093C0002B303105D2
:20E4A00014F43297B4F0C90164E670E00F942EFE6AE070E00F942EFE605D7F4F6093C60007
:20E4C0008091C00086FFFCCF8091C00080648093C000C9016AE070E00F942EFEC0968093F7
:20E4E000C6008091C00086FFFCCF8091C00080648093C00008951F93182F8EE692EE60E0E3
:20E500000F94C2F11093C6008091C00086FFFCCF8091C00080648093C0000F94DCF11F9173
:20E5200008952F923F924F925F926F927F928F929F92AF92BF92CF92DF92EF92FF920F935E
:20E540001F93DF93CF93CDB7DEB762970FB6F894DEBF0FBECDBF382E622ECA01DB015C01E2
:20E560006D01772420E2222E2E010894411C511C8BC081E0A81680E0B80681E0C80680E094
:20E58000D80628F0C601AA27BB270F940DF2BB27AD2D9C2D8B2D0F940DF28A2D0F940DF231
:20E5A0002092C6008091C00086FFFCCF8091C00080648093C0009DE29093C6008091C00001
:20E5C00086FFFCCF8091C00080648093C0002092C6008091C00086FFFCCF8091C000806415
:20E5E0008093C00019828601750188249924A1E03A1651F03A1620F0B2E03B1661F409C0D4
:20E600000BBFF701779007C0C7010F9477FE782E02C0F7017080872D0F940DF22092C6006C
:20E620008091C00086FFFCCF8091C00080648093C000872D8052F401EF70F0708F3520F41F
:20E64000E40DF51D708204C0E40DF51D8EE280830894E11CF11C011D111D0894811C911CB3
:20E6600090E18916910409F0C2CF80E190E0A0E0B0E0A80EB91ECA1EDB1E198AC2010F9413
:20E68000FAF10F94DCF16A94662009F072CF62960FB6F894DEBF0FBECDBFCF91DF911F91A2
:20E6A0000F91FF90EF90DF90CF90BF90AF909F908F907F906F905F904F903F902F900895FB
:20E6C0002F923F924F925F926F927F928F929F92AF92BF92CF92DF92EF92FF920F931F93A8
:20E6E000DF93CF93CDB7DEB7CD53D1400FB6F894DEBF0FBECDBF01E20EBF0FEF0DBF94B7F0
:20E70000F894A89514BE8091600088618093600010926000789493FF05C0E0910002F09138
:20E7200001021995279A2F9A8091C00082608093C00080E18093C40088E18093C1000000A3
:20E74000EE24FF24870144E0A42EB12CCC24DD2424C0C5010197F1F70894E11CF11C011D4A
:20E76000111D21E2E2162EE4F20620E0020720E0120718F031E0C32ED12CC801B70127ECA9
:20E780003BE140E050E00F9441FE611571058105910519F485B1805885B98091C00087FD75
:20E7A00003C0C114D104A9F2A6014F5F5F4FC25EDE4F59834883CE51D140C25EDE4F8881D4
:20E7C0009981CE51D140019711F00D9410FEC05DDE4F19821882C053D14060E0C15DDE4F79
:20E7E0001882CF52D14088249924C35DDE4F19821882CD52D140C05EDE4F188219821A8216
:20E800001B82C052D140CE5CDE4F188219821A821B82C253D140EE24FF2487010BBFF701CE
:20E8200007911691C45CDE4F19830883CC53D1400D940BFEC25EDE4F28813981CE51D1406B
:20E840002130310509F52091C600C25EDE4F19821882CE51D14022C02F5F3F4F4F4F5F4FC0
:20E86000213082E138078AE7480780E0580780F0C45CDE4FE881F981CC53D140EF5FFF4FBA
:20E8800019F0EE27FF27099420E030E040E050E08091C00087FFE0CF2091C600C35DDE4F6D
:20E8A00048815981CD52D1404F5F5F4FC35DDE4F59834883CD52D140213209F063C64A3016
:20E8C000510508F05FC60894811C911C53E08516910409F059C600E010E018C081E2809346
:20E8E000C6008091C00086FFFCCF8091C00080648093C0002F5F3F4F2931310579F70F94EA
:20E90000DCF10F5F1F4F0530110519F020E030E0E5CF10920A0210920B0210920C02109287
:20E920000D0210920602109207021092080210920902109202021092030210920402109283
:20E9400005028FEE90EE60E00F94F5F180E191EE60E00F94C2F18091C00087FFFCCF909133
:20E96000C600903608F09F759032B8F09093C6008091C00086FFFCCF8091C00080648093C3
:20E98000C000A0E2A093C6008091C00086FFFCCF8091C00080648093C000983409F4D7C132
:20E9A0009934B8F4923409F459C1933458F4903319F1903308F4E3C59F33A1F1903409F099
:20E9C000DEC5BDC0953409F470C1963409F0D7C598C1923509F42BC2933538F49C3409F4F6
:20E9E000F5C1913509F0CBC518C2963509F445C2993509F0C4C567C483E792EE62E00F941F
:20EA0000F5F11092060210920702109208021092090210920A0210920B0210920C021092B3
:20EA20000D0213C18FE792EE62E00F94F5F18FEE90EE60E00F94F5F181E291EE60E00F94A9
:20EA4000C2F187EB91EE60E00F94F5F180E391EE60E00F94C2F184EE90EE60E00F94F5F118
:20EA60008FE391EE60E00F94C2F186E090E061E070E00F9434F20F94DCF18DE591EE60E03E
:20EA80000F94C2F189EC91EE60E00F94F5F18EE491EE60E00F94C2F183EC91EE60E00F940B
:20EAA000F5F18CE691EE60E00F94C2F18EE10F940DF288E90F940DF281E00F940DF20F941F
:20EAC000DCF18BE791EE60E00F94C2F119E0E0E0F0E010935700E4918E2F0F940DF20F94E8
:20EAE000DCF18AE891EE60E00F94C2F1E3E0F0E010935700E4918E2F0F940DF20F94DCF1F1
:20EB000089E991EE60E00F94C2F1E2E0F0E010935700E4918E2F0F940DF20F94DCF188EA2C
:20EB200091EE60E00F94C2F1E1E0F0E0109357001491812F0F940DF20F94DCF107CF8BE885
:20EB400092EE62E00F94F5F18BE492EE60E00F94F5F10F94DCF100E010E019C0C8016F2D34
:20EB60000F947FFEFF2031F489E492EE60E00F94C2F10BC0F092C6008091C00086FFFCCF7A
:20EB80008091C00080648093C0000F5F1F4FC80181519F41A0E0B0E0ABBFFC01F790BAE2FC
:20EBA000FB1621F0E2E000301E07C1F60F94DCF10F94DCF187E592EE60E00F94F5F10F942D
:20EBC000DCF1CC24DD2400E010E01EC0C8010F9477FEF82E882331F489E492EE60E00F9422
:20EBE000C2F10BC08093C6008091C00086FFFCCF8091C00080648093C000FE1419F008945E
:20EC0000C11CD11C0F5F1F4FC80181519F41A0E0B0E0ABBFFC01E790FAE2EF1621F022E0F1
:20EC20000030120799F60F94DCF10F94DCF182E692EE60E00F94C2F1C60161E070E00F94A3
:20EC400034F20F94DCF10F94DCF11092020210920302109204021092050278CE89E992EED8
:20EC600062E00F94F5F1279A2F9A16C02F9880E090E0E0EDF7E03197F1F701968436910597
:20EC8000C1F72F9A80E090E0E0EDF7E03197F1F7019684369105C1F78091C00087FFE6CF24
:20ECA0008091C00087FFFCCF64C485EA92EE62E00F94F5F14091020250910302609104029E
:20ECC0007091050281E020E10F9491F28091020290910302A0910402B091050280509F4F2C
:20ECE000AF4FBF4F8093020290930302A0930402B093050280509041A040B04008F426CEE5
:20ED0000A4CF83EB92EE62E00F94F5F14091060250910702609108027091090280E020E19C
:20ED20000F9491F28091060290910702A0910802B091090280509F4FAF4FBF4F80930602FE
:20ED400090930702A0930802B0930902FFCD80EC92EE62E00F94F5F183E792EE60E00F94AC
:20ED6000F5F18FE792EE60E00F94F5F18BE892EE60E00F94F5F189E992EE60E00F94F5F177
:20ED800085EA92EE60E00F94F5F183EB92EE60E00F94F5F180EC92EE60E00F94F5F187ECDC
:20EDA00092EE60E00F94F5F188ED92EE60E00F94F5F18FED92EE60E00F94F5F18AEE92EE8F
:20EDC00060E00F94F5F183E093EEBDCD87EC92EE62E00F94F5F181E40F947BF282E40F94C0
:20EDE0007BF283E40F947BF284E40F947BF285E40F947BF286E40F947BF287E40F947BF249
:20EE000088E40F947BF28AE40F947BF28BE40F947BF28CE40F947BF299CD88ED92EE62E05C
:20EE20000F94F5F1772473948824992409C48FED92EE62E00F94F5F140910A0250910B02DF
:20EE400060910C0270910D0282E020E10F9491F280910A0290910B02A0910C02B0910D0240
:20EE600080509F4FAF4FBF4F80930A0290930B02A0930C02B0930D0269CD8AEE92EE62E076
:20EE80000F94F5F184EE90EE60E00F94F5F18FEC91EE60E00F94F5F1662477244301CC5DDB
:20EEA000DE4F19821882C452D140D401C301B695A79597958795CA5DDE4F88839983AA83B9
:20EEC000BB83C652D140CC5DDE4FA881B981C452D1401196CC5DDE4FB983A883C452D14060
:20EEE000CD0162E070E00F9434F2B0E2B093C6008091C00086FFFCCF8091C0008064809365
:20EF0000C000EDE2E093C6008091C00086FFFCCF8091C00080648093C000F0E2F093C60065
:20EF20008091C00086FFFCCF8091C00080648093C000CA5DDE4FE880F9800A811B81C652B4
:20EF4000D140BB27A12F902F8F2D0F940DF2CA5DDE4F8881C652D1400F940DF2B0E2FB2EEE
:20EF6000F092C6008091C00086FFFCCF8091C00080648093C0000DE30093C6008091C00086
:20EF800086FFFCCF8091C00080648093C00010E21093C6008091C00086FFFCCF8091C0004C
:20EFA00080648093C0008BBEF3012791C65DDE4F2883CA52D140A22EBB24CC24DD24089441
:20EFC000611C711C811C911C8BBEF3018791282E3324442455240894611C711C811C911C0A
:20EFE0008BBEF3013791C55DDE4F3883CB52D1400894611C711C811C911C8BBEF3014791CF
:20F00000C45DDE4F4883CC52D140ADEFEA2EAFEFFA2EAFEF0A2FAFEF1A2F6E0C7F1C801EBD
:20F02000911E142D032DF22CEE24EA0CFB1C0C1D1D1D0F940DF220E22093C6008091C00022
:20F0400086FFFCCF8091C00080648093C000C65DDE4F8881CA52D1400F940DF230E23093DB
:20F06000C6008091C00086FFFCCF8091C00080648093C000C45DDE4F8881CC52D1400F94F8
:20F080000DF240E24093C6008091C00086FFFCCF8091C00080648093C000C55DDE4F8881B5
:20F0A000CB52D1400F940DF250E25093C6008091C00086FFFCCF8091C00080648093C000FC
:20F0C0008FEFE8168FEFF80680E0080780E0180731F484E092EE60E00F94C2F1DFC0D80133
:20F0E000C7018070907CA070B0708050904CA040B040D1F52FEF3FE340E050E0E222F32231
:20F1000004231523CA5DDE4FA880B980CA80DB80C652D140AE0CBF1CC01ED11EAA0CBB1C1E
:20F12000CC1CDD1C8EE092EE60E00F94C2F1BB27A12F902F8F2D0F940DF28E2D0F940DF23E
:20F1400030E23093C6008091C00086FFFCCF8091C00080648093C0004EE34093C600809190
:20F16000C00086FFFCCF87C08EE09EEFA0E0B0E0E822F9220A231B239CE0E91694E9F906A6
:20F1800090E0090790E0190709F088C0C45DDE4FA881CC52D140EA2EFF2400E010E0102F2E
:20F1A0000F2DFE2CEE24C55DDE4FB881CB52D140EB0EF11C011D111DD601C5018170907041
:20F1C000A070B070DC0199278827E80EF91E0A1F1B1F20EF30E040E050E0A222B322C42255
:20F1E000D52241E1AA0CBB1CCC1CDD1C4A95D1F7EA0CFB1C0C1D1D1D81E090E0A0E0B0E090
:20F20000282239224A225B2235E1220C331C441C551C3A95D1F7E20CF31C041D151D5701BD
:20F220006801AA0CBB1CCC1CDD1C85E192EE60E00F94C2F1C801AA27BB270F940DF2BB277B
:20F24000A12F902F8F2D0F940DF28E2D0F940DF290E29093C6008091C00086FFFCCF8091D7
:20F26000C00080648093C000AEE3A093C6008091C00086FFFCCF8091C00080648093C000E4
:20F28000C601AA27BB270F940DF2BB27AD2D9C2D8B2D0F940DF28A2D0F940DF20F94DCF1AA
:20F2A000CC5DDE4FE881F981C452D140F99709F44DCBF4E0EF2EF12C012D112D6E0C7F1CBA
:20F2C000801E911EF2CD83E093EE62E00F94F5F18AE192EE60E00F94C2F18091C00087FF9B
:20F2E000FCCF1091C6001F751093C6008091C00086FFFCCF8091C00080648093C0000F9493
:20F30000DCF1812F81548A3108F036C1163409F495C0173490F4133409F44EC0143430F4C8
:20F320001134F1F0123409F01DC130C0143409F459C0153409F016C16BC01A3409F4C4C029
:20F340001B3438F4173409F48FC0183409F00AC1A1C01B3409F4D2C01C3409F003C1E8C097
:20F360008FEF81B90DC082B1809582B980E090E0E0EDF7E03197F1F70196883C9105C1F7B8
:20F380008091C00087FFEFCF12B8EFC08FEF84B90DC085B1809585B980E090E0E0EDF7E05A
:20F3A0003197F1F70196883C9105C1F78091C00087FFEFCF15B8D9C08FEF87B90DC088B1B5
:20F3C000809588B980E090E0E0EDF7E03197F1F70196883C9105C1F78091C00087FFEFCFF5
:20F3E00018B8C3C08FEF8AB90DC08BB180958BB980E090E0E0EDF7E03197F1F70196883C18
:20F400009105C1F78091C00087FFEFCF1BB8ADC08FEF8DB90DC08EB180958EB980E090E04D
:20F42000E0EDF7E03197F1F70196883C9105C1F78091C00087FFEFCF1EB897C08FEF80BBD4
:20F440000DC081B3809581BB80E090E0E0EDF7E03197F1F70196883C9105C1F78091C000BC
:20F4600087FFEFCF11BA81C08FEF83BB0DC084B3809584BB80E090E0E0EDF7E03197F1F704
:20F480000196883C9105C1F78091C00087FFEFCF14BA6BC08FEF809301010FC0809102013F
:20F4A00080958093020180E090E0E0EDF7E03197F1F70196883C9105C1F78091C00087FFFD
:20F4C000EDCF1092020151C08FEF809304010FC08091050180958093050180E090E0E0ED73
:20F4E000F7E03197F1F70196883C9105C1F78091C00087FFEDCF1092050137C08FEF809399
:20F5000007010FC08091080180958093080180E090E0E0EDF7E03197F1F70196883C9105B4
:20F52000C1F78091C00087FFEDCF109208011DC08FEF80930A010FC080910B0180958093C8
:20F540000B0180E090E0E0EDF7E03197F1F70196883C9105C1F78091C00087FFEDCF10921D
:20F560000B0103C085E292EEEEC98091C00087FFFCCF8091C600EAC988E392EEE4C98CE16D
