:100000000C942C000C9449000C9449000C94490069
:100010000C9449000C9449000C9449000C9449003C
:100020000C9449000C9449000C9449000C9449002C
:100030000C9449000C9449000C9449000C9449001C
:100040000C9449000C9449000C9449000C9449000C
:100050000C9449000067000011241FBECFE5D4E0D6
:10006000DEBFCDBF10E0A0E6B0E0E8E0F7E002C000
:1000700005900D92A637B107D9F720E0A6E7B0E0CA
:1000800001C01D92A53EB207E1F70E9490010C94B9
:1000900082030C9400005D9BFECF6CB95D9BFECF8C
:1000A00095E59CB95D9BFECF8CB9862765E58627D3
:1000B0005D9BFECF1CB8992781950CF490955D9BB4
:1000C000FECF8CB908959B01DB011396FC0133969A
:1000D000A217B30709F408958E918FB9779B03C0D7
:1000E0008FB18293F5CFA895F9CFDB01FC01480FC2
:1000F000591FE417F50709F408958E918FB9779B7E
:1001000003C08FB18193F5CFA895F9CF9FB9779BA5
:1001100007C02FB18FB9779B05C08FB1922F08957B
:10012000A895F5CFA895F7CFCF93C82FC49880E0B6
:1001300099E0CC2311F08FEF99E00E948600C49AD9
:10014000C093E300CF910895C4988F7090E09A60B7
:100150000E948600C49A0895282FC49880E09BE0EE
:10016000222349F0422F4150550BCA01877099272D
:100170009B602093E4000E948600C49A08959091A9
:10018000E4009617A8F067709091E300992379F046
:10019000482F4053550B4A30510560F4805370E0AE
:1001A0006F5F7F4FC498962F0E948600C49A08956F
:1001B00060E0EACF87FF08C0282F2F772053330B4A
:1001C0002A30310558F30895803231F08D3231F004
:1001D000803569F78EE0E3CF8FE0E1CF8AE0DFCFB3
:1001E0000F931F93CF93DF93FC01808190E3909353
:1001F0007A0090E0282F2F7E2032B9F13091E40070
:10020000882309F445C0C0E020E040EB8E32B9F508
:1002100021110CC0CC2379F16C2F6150770BDB01DD
:10022000A658BF4F8C9180688C9321E09F5FDF01BF
:10023000A90FB11D8C918111E9CF0C2F10E0F801AD
:10024000E658FF4F1082C31708F442C0C0E0809107
:10025000E400C817C0F5EC2FF0E0E658FF4F6C2F14
:1002600080810E94BF00CF5FF2CF9F5FDF01A90FA7
:10027000B11D8C91BFCF40937A00C1E0D6CFAC2F97
:10028000B0E0C317D0F6CF5FA658BF4F8C93CECF48
:1002900080EB80937A00C1E0D0CF6D2F80E20E9486
:1002A000BF00DF5F8091E400282F30E0201B310B7E
:1002B000D217130694F38C1BC82F082F10E08091DF
:1002C000E400C81738F0DF91CF911F910F91089586
:1002D000D0E0E8CFEC2FF0E0E01BF10BE658FF4F49
:1002E0006C2F80810E94BF00CF5FE9CFC49881E06E
:1002F0009FE00E948600C49A0895C49880E09FE021
:100300000E948600C49A0895C498811106C080E0B6
:100310009CE00E948600C49A089581E09CE0F9CF99
:10032000969A88E19FE00FB6F894A89581BD0FBE1C
:1003300091BD87B3806B87BB8DB182658DB981E03C
:100340000E9494008CE00E94A40084E00E94AC0013
:1003500081E00E9484010E94760187E886B980E4EA
:1003600087B9A895EFE8F0E08FEC90E0369A349BDF
:10037000FECF349A24B135B121933193AFE3BCE978
:100380001197F1F700C000008E179F0779F7409191
:100390009100509192008091CD009091CE009A01F1
:1003A000281B390B37FF02C0215F3F4FC90134E0E2
:1003B000959587953A95E1F724FD029697FD01966C
:1003C00095958795840F951F909379008093780079
:1003D0008D3CB1E09B0768F4209176003091770066
:1003E0002333314030F01CEC8736914018F01BEB82
:1003F00001C01AEAA89582E88EBD1092770010928B
:1004000076008EB58D738EBD8091760090917700C9
:10041000009709F4ABC081FF05C004969093770064
:1004200080937600C0917600D0917700D695C795DD
:10043000D695C7952197D0937700C093760083E037
:1004400090E00E945A03C817D90729F0BE0183E043
:1004500090E00E946D03C0E066EA76EBE6E858E1C2
:100460008AB1877E8AB9C11128C0E0BD809176002B
:1004700089B98091770080BD5AB9109279001092A5
:10048000780088B7846088BF1DBC1CBC8EB58260B4
:100490008EBD41E090E080E05F9B15C02BB12471E0
:1004A00009F440E02CB1019684309105ACF3413061
:1004B00019F5CF5FC330A1F61FC0C13011F470BD74
:1004C000D5CF60BDD3CF08B602FE0FC028B72460D9
:1004D00028BFA89520917800309179002F5F3F4F79
:1004E0003093790020937800DFCF2091780030910D
:1004F00079002D383105C0F28EB58D7F8EBD82E03A
:1005000090E00E9452038C1729F06C2F82E090E05B
:100510000E9460038AB1877E8AB9C1111FC086E834
:1005200080BD88E18AB90E947D0180E690E00E944A
:10053000F0005D9BFECF85E58CB9D0E0C1E090E096
:1005400080E0A8955F9B08C02CB1C13009F041C084
:100550001213A6C0D127C2E0A895F3CFC13011F481
:1005600086EBDECFC230E9F686EADACF83E090E0B0
:100570000E945A037C01909377008093760082E07A
:1005800090E00E945203C82FEF20E09461F4E5E56B
:10059000F0E065917491709377006093760083E04A
:1005A00090E00E946D038091760089B98091770078
:1005B00080BDCF3F41F4E4E5F0E0C4916C2F82E0D0
:1005C00090E00E946003CC2309F4A9CFC23041F629
:1005D000CBCFC23039F4D227C3E0253509F4BCCFE4
:1005E000D0E047C0C33041F4D227FC01E158FF4FAF
:1005F00020830196C4E0B0CFC43099F4AC014F5FC2
:100600005F4F81589F4FDC012C93D227612F84E0EC
:10061000403151050CF041C0CA0121119DCFC5E008
:100620009BCFC530E9F6D63521F0D53411F0D4335F
:1006300009F4DF5FD20F59F5C0917F00C13059F442
:1006400085E690E00E94F000612F81E00E944B005F
:1006500090E080E081CF80E890E0C23021F0C330AC
:1006600051F48CE690E00E94F000612F81E00E943E
:100670004B00C1E0EDCFC43019F40E947601F5CFF4
:10068000612F83E0C53099F70E947D01EECF8FE6A0
:1006900090E00E94F000612F82E00E944B00A0CF0A
:1006A000D0E0D6CFE199FECF9FBB8EBBE09A9927D1
:1006B0008DB30895A8E1B0E042E050E00C947403DB
:1006C000262FE199FECF9FBB8EBB2DBB0FB6F894B2
:1006D000E29AE19A0FBE019608950E946003272FC7
:1006E0000C946103DC01CB01FC01E199FECF06C053
:1006F000FFBBEEBBE09A31960DB20D9241505040D7
:08070000B8F70895F894FFCF4B
:10070800502020200031202020202000302E002DD5
:060718002D2D2D2D000027
:00000001FF
